{
  "contractName": "ERC20OpenSell",
  "abi": [
    {
      "constant": true,
      "inputs": [
        {
          "name": "",
          "type": "uint256"
        }
      ],
      "name": "trades",
      "outputs": [
        {
          "name": "",
          "type": "uint256"
        }
      ],
      "payable": false,
      "stateMutability": "view",
      "type": "function"
    },
    {
      "constant": true,
      "inputs": [],
      "name": "owner",
      "outputs": [
        {
          "name": "",
          "type": "address"
        }
      ],
      "payable": false,
      "stateMutability": "view",
      "type": "function"
    },
    {
      "constant": true,
      "inputs": [],
      "name": "feesGathered",
      "outputs": [
        {
          "name": "",
          "type": "uint256"
        }
      ],
      "payable": false,
      "stateMutability": "view",
      "type": "function"
    },
    {
      "inputs": [],
      "payable": false,
      "stateMutability": "nonpayable",
      "type": "constructor"
    },
    {
      "payable": true,
      "stateMutability": "payable",
      "type": "fallback"
    },
    {
      "anonymous": false,
      "inputs": [
        {
          "indexed": false,
          "name": "maker",
          "type": "address"
        },
        {
          "indexed": false,
          "name": "token",
          "type": "address"
        },
        {
          "indexed": false,
          "name": "ethPerToken",
          "type": "uint256"
        },
        {
          "indexed": false,
          "name": "expiration",
          "type": "uint256"
        },
        {
          "indexed": false,
          "name": "amountRemaining",
          "type": "uint256"
        }
      ],
      "name": "UpdateSell",
      "type": "event"
    },
    {
      "constant": false,
      "inputs": [
        {
          "name": "token",
          "type": "address"
        },
        {
          "name": "ethPerToken",
          "type": "uint256"
        },
        {
          "name": "expiration",
          "type": "uint256"
        },
        {
          "name": "tokenAmount",
          "type": "uint256"
        }
      ],
      "name": "addToSellOffer",
      "outputs": [],
      "payable": false,
      "stateMutability": "nonpayable",
      "type": "function"
    },
    {
      "constant": false,
      "inputs": [
        {
          "name": "token",
          "type": "address"
        },
        {
          "name": "ethPerToken",
          "type": "uint256"
        },
        {
          "name": "expiration",
          "type": "uint256"
        },
        {
          "name": "other",
          "type": "address"
        }
      ],
      "name": "partialFillSell",
      "outputs": [],
      "payable": true,
      "stateMutability": "payable",
      "type": "function"
    },
    {
      "constant": false,
      "inputs": [
        {
          "name": "token",
          "type": "address"
        },
        {
          "name": "ethPerToken",
          "type": "uint256"
        },
        {
          "name": "expiration",
          "type": "uint256"
        }
      ],
      "name": "cancelSellOffer",
      "outputs": [],
      "payable": false,
      "stateMutability": "nonpayable",
      "type": "function"
    },
    {
      "constant": false,
      "inputs": [],
      "name": "_withdrawFees",
      "outputs": [],
      "payable": false,
      "stateMutability": "nonpayable",
      "type": "function"
    },
    {
      "constant": true,
      "inputs": [
        {
          "name": "amountOfHours",
          "type": "uint256"
        }
      ],
      "name": "getExpirationAfter",
      "outputs": [
        {
          "name": "",
          "type": "uint256"
        }
      ],
      "payable": false,
      "stateMutability": "view",
      "type": "function"
    },
    {
      "constant": true,
      "inputs": [
        {
          "name": "other",
          "type": "address"
        },
        {
          "name": "token",
          "type": "address"
        },
        {
          "name": "ethPerToken",
          "type": "uint256"
        },
        {
          "name": "expiration",
          "type": "uint256"
        },
        {
          "name": "tokenAmount",
          "type": "uint256"
        }
      ],
      "name": "tradeInfo",
      "outputs": [
        {
          "name": "_tradeId",
          "type": "uint256"
        },
        {
          "name": "_buySideTotal",
          "type": "uint256"
        },
        {
          "name": "_amountRemaining",
          "type": "uint256"
        }
      ],
      "payable": false,
      "stateMutability": "view",
      "type": "function"
    }
  ],
  "bytecode": "0x608060405234801561001057600080fd5b50336000806101000a81548173ffffffffffffffffffffffffffffffffffffffff021916908373ffffffffffffffffffffffffffffffffffffffff160217905550610ee1806100606000396000f3fe6080604052600436106100865760003560e01c80638da5cb5b116100595780638da5cb5b146102525780638fac3d3e146102a9578063bc2409ed146102d4578063d0cd6cdb146102eb578063dea46cbb1461035057610086565b80631e6c598e1461008b5780635994bd51146100da578063814012891461018b5780638a5396dc146101da575b600080fd5b34801561009757600080fd5b506100c4600480360360208110156100ae57600080fd5b81019080803590602001909291905050506103bf565b6040518082815260200191505060405180910390f35b3480156100e657600080fd5b50610167600480360360a08110156100fd57600080fd5b81019080803573ffffffffffffffffffffffffffffffffffffffff169060200190929190803573ffffffffffffffffffffffffffffffffffffffff1690602001909291908035906020019092919080359060200190929190803590602001909291905050506103d7565b60405180848152602001838152602001828152602001935050505060405180910390f35b34801561019757600080fd5b506101c4600480360360208110156101ae57600080fd5b8101908080359060200190929190505050610517565b6040518082815260200191505060405180910390f35b610250600480360360808110156101f057600080fd5b81019080803573ffffffffffffffffffffffffffffffffffffffff1690602001909291908035906020019092919080359060200190929190803573ffffffffffffffffffffffffffffffffffffffff169060200190929190505050610527565b005b34801561025e57600080fd5b50610267610864565b604051808273ffffffffffffffffffffffffffffffffffffffff1673ffffffffffffffffffffffffffffffffffffffff16815260200191505060405180910390f35b3480156102b557600080fd5b506102be610889565b6040518082815260200191505060405180910390f35b3480156102e057600080fd5b506102e961088f565b005b3480156102f757600080fd5b5061034e6004803603606081101561030e57600080fd5b81019080803573ffffffffffffffffffffffffffffffffffffffff1690602001909291908035906020019092919080359060200190929190505050610941565b005b34801561035c57600080fd5b506103bd6004803603608081101561037357600080fd5b81019080803573ffffffffffffffffffffffffffffffffffffffff169060200190929190803590602001909291908035906020019092919080359060200190929190505050610b90565b005b60026020528060005260406000206000915090505481565b60008060006103ef8685610e3990919063ffffffff16565b915061040c6103fd83610e70565b83610e9890919063ffffffff16565b915060008073ffffffffffffffffffffffffffffffffffffffff168973ffffffffffffffffffffffffffffffffffffffff1614610449578861044b565b335b905080888888604051602001808573ffffffffffffffffffffffffffffffffffffffff1673ffffffffffffffffffffffffffffffffffffffff1660601b81526014018473ffffffffffffffffffffffffffffffffffffffff1673ffffffffffffffffffffffffffffffffffffffff1660601b81526014018381526020018281526020019450505050506040516020818303038152906040528051906020012060001c93508383600260008781526020019081526020016000205493509350935050955095509592505050565b6000610e10820242019050919050565b600081858585604051602001808573ffffffffffffffffffffffffffffffffffffffff1673ffffffffffffffffffffffffffffffffffffffff1660601b81526014018473ffffffffffffffffffffffffffffffffffffffff1673ffffffffffffffffffffffffffffffffffffffff1660601b81526014018381526020018281526020019450505050506040516020818303038152906040528051906020012060001c905060006103ed6105e56103e834610e3990919063ffffffff16565b816105ec57fe5b04905060008582816105fa57fe5b049050806002600085815260200190815260200160002054101561061d57600080fd5b8060026000858152602001908152602001600020540360026000858152602001908152602001600020819055508673ffffffffffffffffffffffffffffffffffffffff1663a9059cbb33836040518363ffffffff1660e01b8152600401808373ffffffffffffffffffffffffffffffffffffffff1673ffffffffffffffffffffffffffffffffffffffff16815260200182815260200192505050602060405180830381600087803b1580156106d157600080fd5b505af11580156106e5573d6000803e3d6000fd5b505050506040513d60208110156106fb57600080fd5b810190808051906020019092919050505061071557600080fd5b600061072083610e70565b90508473ffffffffffffffffffffffffffffffffffffffff166108fc8285039081150290604051600060405180830381858888f1935050505015801561076a573d6000803e3d6000fd5b506107928161078483600154610e9890919063ffffffff16565b610e9890919063ffffffff16565b6001819055507f1a5c95b34f23177708ef2df41bebd2ff3cbbb6b7c06c34d335376b6fd316b73985898989600260008a815260200190815260200160002054604051808673ffffffffffffffffffffffffffffffffffffffff1673ffffffffffffffffffffffffffffffffffffffff1681526020018573ffffffffffffffffffffffffffffffffffffffff1673ffffffffffffffffffffffffffffffffffffffff1681526020018481526020018381526020018281526020019550505050505060405180910390a15050505050505050565b6000809054906101000a900473ffffffffffffffffffffffffffffffffffffffff1681565b60015481565b6000809054906101000a900473ffffffffffffffffffffffffffffffffffffffff1673ffffffffffffffffffffffffffffffffffffffff163373ffffffffffffffffffffffffffffffffffffffff16146108e857600080fd5b6000600154905060006001819055503373ffffffffffffffffffffffffffffffffffffffff166108fc829081150290604051600060405180830381858888f1935050505015801561093d573d6000803e3d6000fd5b5050565b600033848484604051602001808573ffffffffffffffffffffffffffffffffffffffff1673ffffffffffffffffffffffffffffffffffffffff1660601b81526014018473ffffffffffffffffffffffffffffffffffffffff1673ffffffffffffffffffffffffffffffffffffffff1660601b81526014018381526020018281526020019450505050506040516020818303038152906040528051906020012060001c9050600060026000838152602001908152602001600020549050600060026000848152602001908152602001600020819055508473ffffffffffffffffffffffffffffffffffffffff1663a9059cbb33836040518363ffffffff1660e01b8152600401808373ffffffffffffffffffffffffffffffffffffffff1673ffffffffffffffffffffffffffffffffffffffff16815260200182815260200192505050602060405180830381600087803b158015610a9d57600080fd5b505af1158015610ab1573d6000803e3d6000fd5b505050506040513d6020811015610ac757600080fd5b8101908080519060200190929190505050507f1a5c95b34f23177708ef2df41bebd2ff3cbbb6b7c06c34d335376b6fd316b739338686866000604051808673ffffffffffffffffffffffffffffffffffffffff1673ffffffffffffffffffffffffffffffffffffffff1681526020018573ffffffffffffffffffffffffffffffffffffffff1673ffffffffffffffffffffffffffffffffffffffff1681526020018481526020018381526020018281526020019550505050505060405180910390a15050505050565b600033858585604051602001808573ffffffffffffffffffffffffffffffffffffffff1673ffffffffffffffffffffffffffffffffffffffff1660601b81526014018473ffffffffffffffffffffffffffffffffffffffff1673ffffffffffffffffffffffffffffffffffffffff1660601b81526014018381526020018281526020019450505050506040516020818303038152906040528051906020012060001c90508473ffffffffffffffffffffffffffffffffffffffff166323b872dd3330856040518463ffffffff1660e01b8152600401808473ffffffffffffffffffffffffffffffffffffffff1673ffffffffffffffffffffffffffffffffffffffff1681526020018373ffffffffffffffffffffffffffffffffffffffff1673ffffffffffffffffffffffffffffffffffffffff1681526020018281526020019350505050602060405180830381600087803b158015610cef57600080fd5b505af1158015610d03573d6000803e3d6000fd5b505050506040513d6020811015610d1957600080fd5b8101908080519060200190929190505050610d3357600080fd5b610d59826002600084815260200190815260200160002054610e9890919063ffffffff16565b60026000838152602001908152602001600020819055507f1a5c95b34f23177708ef2df41bebd2ff3cbbb6b7c06c34d335376b6fd316b739338686866002600087815260200190815260200160002054604051808673ffffffffffffffffffffffffffffffffffffffff1673ffffffffffffffffffffffffffffffffffffffff1681526020018573ffffffffffffffffffffffffffffffffffffffff1673ffffffffffffffffffffffffffffffffffffffff1681526020018481526020018381526020018281526020019550505050505060405180910390a15050505050565b600080831415610e4c5760009050610e6a565b818302905081838281610e5b57fe5b0414610e6657600080fd5b8090505b92915050565b60006103e8610e89600584610e3990919063ffffffff16565b81610e9057fe5b049050919050565b6000818301905082811015610eac57600080fd5b8090509291505056fea165627a7a72305820373c1bdc75982c918e164647840c0541d0d724f592094248d778d941feb4a55f0029",
  "source": "pragma solidity >=0.5.0;\n\ninterface IERC20 {\n    function transfer(address to, uint256 value) external returns (bool);\n\n    function approve(address spender, uint256 value) external returns (bool);\n\n    function transferFrom(address from, address to, uint256 value) external returns (bool);\n\n    function totalSupply() external view returns (uint256);\n\n    function balanceOf(address who) external view returns (uint256);\n\n    function allowance(address owner, address spender) external view returns (uint256);\n\n    event Transfer(address indexed from, address indexed to, uint256 value);\n\n    event Approval(address indexed owner, address indexed spender, uint256 value);\n}\n\nlibrary SafeMath {\n    function add(uint256 a, uint256 b) internal pure returns (uint256 c) {\n        c = a + b;\n        require(c >= a);\n        return c;\n    }\n\n    function mul(uint256 a, uint256 b) internal pure returns (uint256 c) {\n        if (a == 0) {\n            return 0;\n        }\n        c = a * b;\n        require(c / a == b);\n        return c;\n    }\n}\n\ncontract ERC20OpenBuy {\n    using SafeMath for uint256;\n    \n    event UpdateBuy(address maker, address token, uint256 ethPerToken, uint256 expiration, uint256 amountRemaining);\n\n    address public owner;\n    uint256 public feesGathered;\n\n    mapping (uint256 => uint256) public trades;\n\n    modifier onlyOwner {\n        require(msg.sender == owner);\n        _;\n    }\n\n    constructor() public {\n        owner = msg.sender;\n    }\n    \n    function addToBuyOffer(address token, uint256 ethPerToken, uint256 expiration) public payable {\n        uint256 tradeId = uint256(keccak256(abi.encodePacked(msg.sender, token, ethPerToken, expiration)));\n        trades[tradeId] = trades[tradeId].add(msg.value.mul(1000) / 1005);\n        emit UpdateBuy(msg.sender, token, ethPerToken, expiration, trades[tradeId]); // Log open BUY\n    }\n    \n    function partialFillBuy(address token, uint256 ethPerToken, uint256 expiration, uint256 tokenAmount, address payable other) public {\n        uint256 tradeId = uint256(keccak256(abi.encodePacked(other, token, ethPerToken, expiration)));\n        uint256 ethPayment = tokenAmount.mul(ethPerToken);\n        require(trades[tradeId] >= ethPayment); // Make sure there is enough ether to pay for these tokens\n        trades[tradeId] = trades[tradeId] - ethPayment;\n        require(IERC20(token).transferFrom(msg.sender, other, tokenAmount)); // Take tokens from seller and give to buyer\n        uint256 fee = computeFee(ethPayment);\n        msg.sender.transfer(ethPayment - fee);\n        feesGathered = feesGathered.add(fee).add(fee);\n        emit UpdateBuy(other, token, ethPerToken, expiration, trades[tradeId]); // Log open BUY\n    }\n    \n    function cancelBuyOffer(address token, uint256 ethPerToken, uint256 expiration) public {\n        uint256 tradeId = uint256(keccak256(abi.encodePacked(msg.sender, token, ethPerToken, expiration)));\n        uint256 ethAmount = trades[tradeId];\n        trades[tradeId] = 0;\n        msg.sender.transfer(ethAmount + computeFee(ethAmount)); // Refund eth + fee to buyer\n        emit UpdateBuy(msg.sender, token, ethPerToken, expiration, 0); // Log open BUY\n    }\n    \n    function _withdrawFees() public onlyOwner {\n        uint256 amount = feesGathered;\n        feesGathered = 0;\n        msg.sender.transfer(amount);\n    }\n    \n    function computeFee(uint256 value) private pure returns (uint256) {\n        return value.mul(5) / 1000; // this is the fee we take on each side (0.5%)\n    }\n    \n    function getExpirationAfter(uint256 amountOfHours) public view returns (uint256) {\n        return now + (amountOfHours * (1 hours));\n    }\n    \n    function tradeInfo(address payable other, address token, uint256 ethPerToken, uint256 expiration, uint256 tokenAmount) public view \n    returns (uint256 _tradeId, uint256 _buySideTotal, uint256 _amountRemaining) {\n        _buySideTotal = tokenAmount.mul(ethPerToken);\n        _buySideTotal = _buySideTotal.add(computeFee(_buySideTotal));\n        address payable maker = other == address(0x0) ? msg.sender : other;\n        _tradeId = uint256(keccak256(abi.encodePacked(maker, token, ethPerToken, expiration)));\n        return (_tradeId, _buySideTotal, trades[_tradeId]);\n    }\n    \n    function() external payable {\n        revert();\n    }\n}\n\n\ncontract ERC20OpenSell {\n    using SafeMath for uint256;\n    \n    event UpdateSell(address maker, address token, uint256 ethPerToken, uint256 expiration, uint256 amountRemaining);\n\n    address public owner;\n    uint256 public feesGathered;\n\n    mapping (uint256 => uint256) public trades;\n\n    modifier onlyOwner {\n        require(msg.sender == owner);\n        _;\n    }\n\n    constructor() public {\n        owner = msg.sender;\n    }\n    \n    function addToSellOffer(address token, uint256 ethPerToken, uint256 expiration, uint256 tokenAmount) public {\n        uint256 tradeId = uint256(keccak256(abi.encodePacked(msg.sender, token, ethPerToken, expiration)));\n        require(IERC20(token).transferFrom(msg.sender, address(this), tokenAmount)); // Take tokens from seller\n        trades[tradeId] = trades[tradeId].add(tokenAmount); // Update state\n        emit UpdateSell(msg.sender, token, ethPerToken, expiration, trades[tradeId]); // Log open SELL\n    }\n    \n    function partialFillSell(address token, uint256 ethPerToken, uint256 expiration, address payable other) public payable {\n        uint256 tradeId = uint256(keccak256(abi.encodePacked(other, token, ethPerToken, expiration)));\n        uint256 ethPayment = msg.value.mul(1000) / 1005; // Without fee\n        uint256 tokenAmount = ethPayment / ethPerToken;\n        require(trades[tradeId] >= tokenAmount); // Make sure there are enough tokens to pay\n        trades[tradeId] = trades[tradeId] - tokenAmount; // Update state\n        require(IERC20(token).transfer(msg.sender, tokenAmount)); // Give tokens to buyer\n        uint256 fee = computeFee(ethPayment);\n        other.transfer(ethPayment - fee); // Pay the seller\n        feesGathered = feesGathered.add(fee).add(fee);\n        emit UpdateSell(other, token, ethPerToken, expiration, trades[tradeId]); // Log open BUY\n    }\n    \n    function cancelSellOffer(address token, uint256 ethPerToken, uint256 expiration) public {\n        uint256 tradeId = uint256(keccak256(abi.encodePacked(msg.sender, token, ethPerToken, expiration)));\n        uint256 tokenAmount = trades[tradeId];\n        trades[tradeId] = 0;\n        IERC20(token).transfer(msg.sender, tokenAmount); // Refund seller\n        emit UpdateSell(msg.sender, token, ethPerToken, expiration, 0); // Log open SELL\n    }\n    \n    function _withdrawFees() public onlyOwner {\n        uint256 amount = feesGathered;\n        feesGathered = 0;\n        msg.sender.transfer(amount);\n    }\n    \n    function computeFee(uint256 value) private pure returns (uint256) {\n        return value.mul(5) / 1000; // this is the fee we take on each side (0.5%)\n    }\n    \n    function getExpirationAfter(uint256 amountOfHours) public view returns (uint256) {\n        return now + (amountOfHours * (1 hours));\n    }\n    \n    function tradeInfo(address payable other, address token, uint256 ethPerToken, uint256 expiration, uint256 tokenAmount) public view \n    returns (uint256 _tradeId, uint256 _buySideTotal, uint256 _amountRemaining) {\n        _buySideTotal = tokenAmount.mul(ethPerToken);\n        _buySideTotal = _buySideTotal.add(computeFee(_buySideTotal));\n        address payable maker = other == address(0x0) ? msg.sender : other;\n        _tradeId = uint256(keccak256(abi.encodePacked(maker, token, ethPerToken, expiration)));\n        return (_tradeId, _buySideTotal, trades[_tradeId]);\n    }\n    \n    function() external payable {\n        revert();\n    }\n}\n",
  "sourcePath": "/Users/dragos/Downloads/otcbutler/contracts/erc20openoffer.sol",
  "compiler": {
    "name": "solc",
    "version": "0.5.8+commit.23d335f2.Emscripten.clang"
  },
  "schemaVersion": "3.0.11",
  "updatedAt": "2019-09-18T13:35:03.280Z",
  "devdoc": {
    "methods": {}
  },
  "userdoc": {
    "methods": {}
  }
}