{
  "contractName": "ERC20OptionTrade",
  "abi": [
    {
      "constant": true,
      "inputs": [
        {
          "name": "",
          "type": "uint256"
        }
      ],
      "name": "trades",
      "outputs": [
        {
          "name": "buyer",
          "type": "address"
        },
        {
          "name": "seller",
          "type": "address"
        },
        {
          "name": "symbol",
          "type": "string"
        },
        {
          "name": "payment",
          "type": "uint256"
        },
        {
          "name": "amountOfTokens",
          "type": "uint256"
        },
        {
          "name": "deposit",
          "type": "uint256"
        },
        {
          "name": "expiration",
          "type": "uint256"
        },
        {
          "name": "state",
          "type": "uint8"
        }
      ],
      "payable": false,
      "stateMutability": "view",
      "type": "function"
    },
    {
      "constant": true,
      "inputs": [],
      "name": "feesGathered",
      "outputs": [
        {
          "name": "",
          "type": "uint256"
        }
      ],
      "payable": false,
      "stateMutability": "view",
      "type": "function"
    },
    {
      "inputs": [],
      "payable": false,
      "stateMutability": "nonpayable",
      "type": "constructor"
    },
    {
      "payable": true,
      "stateMutability": "payable",
      "type": "fallback"
    },
    {
      "anonymous": false,
      "inputs": [
        {
          "indexed": false,
          "name": "tradeId",
          "type": "uint256"
        },
        {
          "indexed": true,
          "name": "buyer",
          "type": "address"
        },
        {
          "indexed": true,
          "name": "seller",
          "type": "address"
        },
        {
          "indexed": false,
          "name": "symbol",
          "type": "string"
        },
        {
          "indexed": false,
          "name": "pricePerToken",
          "type": "uint256"
        },
        {
          "indexed": false,
          "name": "amountOfTokens",
          "type": "uint256"
        },
        {
          "indexed": false,
          "name": "depositPercentage",
          "type": "uint256"
        },
        {
          "indexed": false,
          "name": "expiration",
          "type": "uint256"
        },
        {
          "indexed": false,
          "name": "state",
          "type": "uint8"
        }
      ],
      "name": "OpenTrade",
      "type": "event"
    },
    {
      "anonymous": false,
      "inputs": [
        {
          "indexed": false,
          "name": "tradeId",
          "type": "uint256"
        },
        {
          "indexed": true,
          "name": "buyer",
          "type": "address"
        },
        {
          "indexed": true,
          "name": "seller",
          "type": "address"
        },
        {
          "indexed": false,
          "name": "state",
          "type": "uint8"
        }
      ],
      "name": "UpdateTrade",
      "type": "event"
    },
    {
      "constant": false,
      "inputs": [
        {
          "name": "wantToBuy",
          "type": "bool"
        },
        {
          "name": "symbol",
          "type": "string"
        },
        {
          "name": "amountOfTokens",
          "type": "uint256"
        },
        {
          "name": "pricePerToken",
          "type": "uint256"
        },
        {
          "name": "depositPercentage",
          "type": "uint256"
        },
        {
          "name": "expiration",
          "type": "uint256"
        },
        {
          "name": "other",
          "type": "address"
        }
      ],
      "name": "A_trade",
      "outputs": [],
      "payable": true,
      "stateMutability": "payable",
      "type": "function"
    },
    {
      "constant": false,
      "inputs": [
        {
          "name": "tradeId",
          "type": "uint256"
        }
      ],
      "name": "B_matchTrade",
      "outputs": [],
      "payable": true,
      "stateMutability": "payable",
      "type": "function"
    },
    {
      "constant": false,
      "inputs": [
        {
          "name": "tradeId",
          "type": "uint256"
        }
      ],
      "name": "B_cancelOpenTrade",
      "outputs": [],
      "payable": false,
      "stateMutability": "nonpayable",
      "type": "function"
    },
    {
      "constant": false,
      "inputs": [
        {
          "name": "tradeId",
          "type": "uint256"
        }
      ],
      "name": "C_completeTrade",
      "outputs": [],
      "payable": false,
      "stateMutability": "nonpayable",
      "type": "function"
    },
    {
      "constant": false,
      "inputs": [
        {
          "name": "tradeId",
          "type": "uint256"
        }
      ],
      "name": "C_claimExpiredTrade",
      "outputs": [],
      "payable": false,
      "stateMutability": "nonpayable",
      "type": "function"
    },
    {
      "constant": false,
      "inputs": [
        {
          "name": "amount",
          "type": "uint256"
        }
      ],
      "name": "_withdrawFees",
      "outputs": [],
      "payable": false,
      "stateMutability": "nonpayable",
      "type": "function"
    },
    {
      "constant": true,
      "inputs": [
        {
          "name": "amountOfHours",
          "type": "uint256"
        }
      ],
      "name": "getExpirationAfter",
      "outputs": [
        {
          "name": "",
          "type": "uint256"
        }
      ],
      "payable": false,
      "stateMutability": "view",
      "type": "function"
    },
    {
      "constant": true,
      "inputs": [
        {
          "name": "wantToBuy",
          "type": "bool"
        },
        {
          "name": "symbol",
          "type": "string"
        },
        {
          "name": "amountOfTokens",
          "type": "uint256"
        },
        {
          "name": "priceOfOneToken",
          "type": "uint256"
        },
        {
          "name": "depositPercentage",
          "type": "uint256"
        },
        {
          "name": "expiration",
          "type": "uint256"
        },
        {
          "name": "other",
          "type": "address"
        }
      ],
      "name": "tradeInfo",
      "outputs": [
        {
          "name": "_tradeId",
          "type": "uint256"
        },
        {
          "name": "_buySideTotal",
          "type": "uint256"
        },
        {
          "name": "_sellSideTotal",
          "type": "uint256"
        },
        {
          "name": "_state",
          "type": "uint8"
        }
      ],
      "payable": false,
      "stateMutability": "view",
      "type": "function"
    },
    {
      "constant": false,
      "inputs": [
        {
          "name": "symbol",
          "type": "string"
        },
        {
          "name": "token",
          "type": "address"
        }
      ],
      "name": "_setTokenAddress",
      "outputs": [],
      "payable": false,
      "stateMutability": "nonpayable",
      "type": "function"
    },
    {
      "constant": true,
      "inputs": [
        {
          "name": "symbol",
          "type": "string"
        }
      ],
      "name": "getTokenAddress",
      "outputs": [
        {
          "name": "",
          "type": "address"
        }
      ],
      "payable": false,
      "stateMutability": "view",
      "type": "function"
    }
  ],
  "bytecode": "0x608060405234801561001057600080fd5b50336000806101000a81548173ffffffffffffffffffffffffffffffffffffffff021916908373ffffffffffffffffffffffffffffffffffffffff1602179055506123e9806100606000396000f3fe6080604052600436106100a65760003560e01c8063814012891161006457806381401289146104e25780638fac3d3e14610531578063976b092d1461055c578063c40912361461066b578063c90550a914610773578063e8701551146107ae576100a6565b8062976679146100ab5780631e6c598e146100e65780631f175e08146102315780634ca463891461026c5780636b7d883e146103545780637510919e1461038f575b600080fd5b3480156100b757600080fd5b506100e4600480360360208110156100ce57600080fd5b81019080803590602001909291905050506107dc565b005b3480156100f257600080fd5b5061011f6004803603602081101561010957600080fd5b8101908080359060200190929190505050610a33565b604051808973ffffffffffffffffffffffffffffffffffffffff1673ffffffffffffffffffffffffffffffffffffffff1681526020018873ffffffffffffffffffffffffffffffffffffffff1673ffffffffffffffffffffffffffffffffffffffff168152602001806020018781526020018681526020018581526020018481526020018360068111156101af57fe5b60ff168152602001828103825288818151815260200191508051906020019080838360005b838110156101ef5780820151818401526020810190506101d4565b50505050905090810190601f16801561021c5780820380516001836020036101000a031916815260200191505b50995050505050505050505060405180910390f35b34801561023d57600080fd5b5061026a6004803603602081101561025457600080fd5b8101908080359060200190929190505050610b60565b005b34801561027857600080fd5b506103526004803603604081101561028f57600080fd5b81019080803590602001906401000000008111156102ac57600080fd5b8201836020820111156102be57600080fd5b803590602001918460018302840111640100000000831117156102e057600080fd5b91908080601f016020809104026020016040519081016040528093929190818152602001838380828437600081840152601f19601f820116905080830192505050505050509192919290803573ffffffffffffffffffffffffffffffffffffffff169060200190929190505050610c22565b005b34801561036057600080fd5b5061038d6004803603602081101561037757600080fd5b8101908080359060200190929190505050610cd9565b005b34801561039b57600080fd5b506104a9600480360360e08110156103b257600080fd5b81019080803515159060200190929190803590602001906401000000008111156103db57600080fd5b8201836020820111156103ed57600080fd5b8035906020019184600183028401116401000000008311171561040f57600080fd5b91908080601f016020809104026020016040519081016040528093929190818152602001838380828437600081840152601f19601f82011690508083019250505050505050919291929080359060200190929190803590602001909291908035906020019092919080359060200190929190803573ffffffffffffffffffffffffffffffffffffffff169060200190929190505050611023565b604051808581526020018481526020018381526020018260068111156104cb57fe5b60ff16815260200194505050505060405180910390f35b3480156104ee57600080fd5b5061051b6004803603602081101561050557600080fd5b81019080803590602001909291905050506111f8565b6040518082815260200191505060405180910390f35b34801561053d57600080fd5b50610546611228565b6040518082815260200191505060405180910390f35b610669600480360360e081101561057257600080fd5b810190808035151590602001909291908035906020019064010000000081111561059b57600080fd5b8201836020820111156105ad57600080fd5b803590602001918460018302840111640100000000831117156105cf57600080fd5b91908080601f016020809104026020016040519081016040528093929190818152602001838380828437600081840152601f19601f82011690508083019250505050505050919291929080359060200190929190803590602001909291908035906020019092919080359060200190929190803573ffffffffffffffffffffffffffffffffffffffff16906020019092919050505061122e565b005b34801561067757600080fd5b506107316004803603602081101561068e57600080fd5b81019080803590602001906401000000008111156106ab57600080fd5b8201836020820111156106bd57600080fd5b803590602001918460018302840111640100000000831117156106df57600080fd5b91908080601f016020809104026020016040519081016040528093929190818152602001838380828437600081840152601f19601f820116905080830192505050505050509192919290505050611986565b604051808273ffffffffffffffffffffffffffffffffffffffff1673ffffffffffffffffffffffffffffffffffffffff16815260200191505060405180910390f35b34801561077f57600080fd5b506107ac6004803603602081101561079657600080fd5b81019080803590602001909291905050506119cb565b005b6107da600480360360208110156107c457600080fd5b8101908080359060200190929190505050611dda565b005b60006002600083815260200190815260200160002090506004600681111561080057fe5b8160070160009054906101000a900460ff16600681111561081d57fe5b14801561087957508060000160009054906101000a900473ffffffffffffffffffffffffffffffffffffffff1673ffffffffffffffffffffffffffffffffffffffff163373ffffffffffffffffffffffffffffffffffffffff16145b80156108885750428160060154105b61089157600080fd5b60068160070160006101000a81548160ff021916908360068111156108b257fe5b02179055506108d760026108c983600301546121fe565b61222690919063ffffffff16565b6001600082825401925050819055508060000160009054906101000a900473ffffffffffffffffffffffffffffffffffffffff1673ffffffffffffffffffffffffffffffffffffffff166108fc82600501548360030154019081150290604051600060405180830381858888f1935050505015801561095a573d6000803e3d6000fd5b508060010160009054906101000a900473ffffffffffffffffffffffffffffffffffffffff1673ffffffffffffffffffffffffffffffffffffffff168160000160009054906101000a900473ffffffffffffffffffffffffffffffffffffffff1673ffffffffffffffffffffffffffffffffffffffff167f3b1a762c902fc4fd1e0bc424815ee035c66ff3ea0a640e6a146c3d1d06988bdc848460070160009054906101000a900460ff1660405180838152602001826006811115610a1b57fe5b60ff1681526020019250505060405180910390a35050565b60026020528060005260406000206000915090508060000160009054906101000a900473ffffffffffffffffffffffffffffffffffffffff16908060010160009054906101000a900473ffffffffffffffffffffffffffffffffffffffff1690806002018054600181600116156101000203166002900480601f016020809104026020016040519081016040528092919081815260200182805460018160011615610100020316600290048015610b2b5780601f10610b0057610100808354040283529160200191610b2b565b820191906000526020600020905b815481529060010190602001808311610b0e57829003601f168201915b5050505050908060030154908060040154908060050154908060060154908060070160009054906101000a900460ff16905088565b6000809054906101000a900473ffffffffffffffffffffffffffffffffffffffff1673ffffffffffffffffffffffffffffffffffffffff163373ffffffffffffffffffffffffffffffffffffffff1614610bb957600080fd5b806001541015610bc857600080fd5b806001600082825403925050819055503373ffffffffffffffffffffffffffffffffffffffff166108fc829081150290604051600060405180830381858888f19350505050158015610c1e573d6000803e3d6000fd5b5050565b6000809054906101000a900473ffffffffffffffffffffffffffffffffffffffff1673ffffffffffffffffffffffffffffffffffffffff163373ffffffffffffffffffffffffffffffffffffffff1614610c7b57600080fd5b8060036000610c8985612260565b815260200190815260200160002060006101000a81548173ffffffffffffffffffffffffffffffffffffffff021916908373ffffffffffffffffffffffffffffffffffffffff1602179055505050565b600060026000838152602001908152602001600020905060016006811115610cfd57fe5b8160070160009054906101000a900460ff166006811115610d1a57fe5b1480610d4d575060026006811115610d2e57fe5b8160070160009054906101000a900460ff166006811115610d4b57fe5b145b610d5657600080fd5b8060010160009054906101000a900473ffffffffffffffffffffffffffffffffffffffff1673ffffffffffffffffffffffffffffffffffffffff163373ffffffffffffffffffffffffffffffffffffffff161480610e0357508060000160009054906101000a900473ffffffffffffffffffffffffffffffffffffffff1673ffffffffffffffffffffffffffffffffffffffff163373ffffffffffffffffffffffffffffffffffffffff16145b610e0c57600080fd5b60008060016006811115610e1c57fe5b8360070160009054906101000a900460ff166006811115610e3957fe5b14610e8b578260000160009054906101000a900473ffffffffffffffffffffffffffffffffffffffff16610e86610e7385600301546121fe565b856003015461227d90919063ffffffff16565b610ed4565b8260010160009054906101000a900473ffffffffffffffffffffffffffffffffffffffff16610ed3610ec085600301546121fe565b856005015461227d90919063ffffffff16565b5b809250819350505060038360070160006101000a81548160ff02191690836006811115610efd57fe5b02179055508260010160009054906101000a900473ffffffffffffffffffffffffffffffffffffffff1673ffffffffffffffffffffffffffffffffffffffff168360000160009054906101000a900473ffffffffffffffffffffffffffffffffffffffff1673ffffffffffffffffffffffffffffffffffffffff167f3b1a762c902fc4fd1e0bc424815ee035c66ff3ea0a640e6a146c3d1d06988bdc868660070160009054906101000a900460ff1660405180838152602001826006811115610fc257fe5b60ff1681526020019250505060405180910390a38173ffffffffffffffffffffffffffffffffffffffff166108fc829081150290604051600060405180830381858888f1935050505015801561101c573d6000803e3d6000fd5b5050505050565b60008060008061103c888a61222690919063ffffffff16565b92506064611053848961222690919063ffffffff16565b8161105a57fe5b049150611078611069846121fe565b8361227d90919063ffffffff16565b9150611095611086846121fe565b8461227d90919063ffffffff16565b92506000808c6110a65786336110a9565b33875b8092508193505050600082828e8e8e8e8e604051602001808873ffffffffffffffffffffffffffffffffffffffff1673ffffffffffffffffffffffffffffffffffffffff1660601b81526014018773ffffffffffffffffffffffffffffffffffffffff1673ffffffffffffffffffffffffffffffffffffffff1660601b815260140186805190602001908083835b6020831061115a5780518252602082019150602081019050602083039250611137565b6001836020036101000a0380198251168184511680821785525050505050509050018581526020018481526020018381526020018281526020019750505050505050506040516020818303038152906040528051906020012060001c90508086866002600085815260200190815260200160002060070160009054906101000a900460ff169650965096509650505050975097509750979350505050565b6000611221611212610e108461222690919063ffffffff16565b4261227d90919063ffffffff16565b9050919050565b60015481565b600073ffffffffffffffffffffffffffffffffffffffff166003600061125389612260565b815260200190815260200160002060009054906101000a900473ffffffffffffffffffffffffffffffffffffffff1673ffffffffffffffffffffffffffffffffffffffff1614156112a357600080fd5b6103e88410156112b257600080fd5b6112ba61229c565b866112ce878761222690919063ffffffff16565b8760646112f6886112e88c8c61222690919063ffffffff16565b61222690919063ffffffff16565b816112fd57fe5b04868494508560400186606001876080018860a0018960c001858152508581525085815250858152508590525050505050600088611361578233600161135c61134986606001516121fe565b8660a0015161227d90919063ffffffff16565b611389565b3383600261138861137586606001516121fe565b866060015161227d90919063ffffffff16565b5b85600001866020018760e0018397508460068111156113a457fe5b60068111156113af57fe5b8152508473ffffffffffffffffffffffffffffffffffffffff1673ffffffffffffffffffffffffffffffffffffffff168152508473ffffffffffffffffffffffffffffffffffffffff1673ffffffffffffffffffffffffffffffffffffffff16815250505050508034101561142357600080fd5b600082600001518360200151846040015185608001518a8a8860c00151604051602001808873ffffffffffffffffffffffffffffffffffffffff1673ffffffffffffffffffffffffffffffffffffffff1660601b81526014018773ffffffffffffffffffffffffffffffffffffffff1673ffffffffffffffffffffffffffffffffffffffff1660601b815260140186805190602001908083835b602083106114e057805182526020820191506020810190506020830392506114bd565b6001836020036101000a0380198251168184511680821785525050505050509050018581526020018481526020018381526020018281526020019750505050505050506040516020818303038152906040528051906020012060001c905060006002600083815260200190815260200160002090506000600681111561156257fe5b8160070160009054906101000a900460ff16600681111561157f57fe5b14156117bd57836020015173ffffffffffffffffffffffffffffffffffffffff16846000015173ffffffffffffffffffffffffffffffffffffffff167ff2f9e505f99753ebb8b7470d085f188dec7240d0349f2bdc13d46e47845757768487604001518c89608001518d8b60c001518c60e00151604051808881526020018060200187815260200186815260200185815260200184815260200183600681111561162557fe5b60ff168152602001828103825288818151815260200191508051906020019080838360005b8381101561166557808201518184015260208101905061164a565b50505050905090810190601f1680156116925780820380516001836020036101000a031916815260200191505b509850505050505050505060405180910390a3836002600084815260200190815260200160002060008201518160000160006101000a81548173ffffffffffffffffffffffffffffffffffffffff021916908373ffffffffffffffffffffffffffffffffffffffff16021790555060208201518160010160006101000a81548173ffffffffffffffffffffffffffffffffffffffff021916908373ffffffffffffffffffffffffffffffffffffffff1602179055506040820151816002019080519060200190611763929190612318565b50606082015181600301556080820151816004015560a0820151816005015560c0820151816006015560e08201518160070160006101000a81548160ff021916908360068111156117b057fe5b0217905550905050611930565b600260068111156117ca57fe5b8460e0015160068111156117da57fe5b14801561180e5750600160068111156117ef57fe5b8160070160009054906101000a900460ff16600681111561180c57fe5b145b8061186657506001600681111561182157fe5b8460e00151600681111561183157fe5b14801561186557506002600681111561184657fe5b8160070160009054906101000a900460ff16600681111561186357fe5b145b5b1561192a5760048160070160006101000a81548160ff0219169083600681111561188c57fe5b0217905550836020015173ffffffffffffffffffffffffffffffffffffffff16846000015173ffffffffffffffffffffffffffffffffffffffff167f3b1a762c902fc4fd1e0bc424815ee035c66ff3ea0a640e6a146c3d1d06988bdc848460070160009054906101000a900460ff166040518083815260200182600681111561191157fe5b60ff1681526020019250505060405180910390a361192f565b600080fd5b5b3373ffffffffffffffffffffffffffffffffffffffff166108fc8434039081150290604051600060405180830381858888f19350505050158015611978573d6000803e3d6000fd5b505050505050505050505050565b60006003600061199584612260565b815260200190815260200160002060009054906101000a900473ffffffffffffffffffffffffffffffffffffffff169050919050565b6000600260008381526020019081526020016000209050600460068111156119ef57fe5b8160070160009054906101000a900460ff166006811115611a0c57fe5b14611a1657600080fd5b60058160070160006101000a81548160ff02191690836006811115611a3757fe5b0217905550611a5c6002611a4e83600301546121fe565b61222690919063ffffffff16565b60016000828254019250508190555060036000611b14836002018054600181600116156101000203166002900480601f016020809104026020016040519081016040528092919081815260200182805460018160011615610100020316600290048015611b0a5780601f10611adf57610100808354040283529160200191611b0a565b820191906000526020600020905b815481529060010190602001808311611aed57829003601f168201915b5050505050612260565b815260200190815260200160002060009054906101000a900473ffffffffffffffffffffffffffffffffffffffff1673ffffffffffffffffffffffffffffffffffffffff166323b872dd8260010160009054906101000a900473ffffffffffffffffffffffffffffffffffffffff168360000160009054906101000a900473ffffffffffffffffffffffffffffffffffffffff1684600401546040518463ffffffff1660e01b8152600401808473ffffffffffffffffffffffffffffffffffffffff1673ffffffffffffffffffffffffffffffffffffffff1681526020018373ffffffffffffffffffffffffffffffffffffffff1673ffffffffffffffffffffffffffffffffffffffff1681526020018281526020019350505050602060405180830381600087803b158015611c4957600080fd5b505af1158015611c5d573d6000803e3d6000fd5b505050506040513d6020811015611c7357600080fd5b8101908080519060200190929190505050611c8d57600080fd5b8060010160009054906101000a900473ffffffffffffffffffffffffffffffffffffffff1673ffffffffffffffffffffffffffffffffffffffff166108fc82600501548360030154019081150290604051600060405180830381858888f19350505050158015611d01573d6000803e3d6000fd5b508060010160009054906101000a900473ffffffffffffffffffffffffffffffffffffffff1673ffffffffffffffffffffffffffffffffffffffff168160000160009054906101000a900473ffffffffffffffffffffffffffffffffffffffff1673ffffffffffffffffffffffffffffffffffffffff167f3b1a762c902fc4fd1e0bc424815ee035c66ff3ea0a640e6a146c3d1d06988bdc848460070160009054906101000a900460ff1660405180838152602001826006811115611dc257fe5b60ff1681526020019250505060405180910390a35050565b6000600260008381526020019081526020016000209050600060016006811115611e0057fe5b8260070160009054906101000a900460ff166006811115611e1d57fe5b1415611f4b57600073ffffffffffffffffffffffffffffffffffffffff168260000160009054906101000a900473ffffffffffffffffffffffffffffffffffffffff1673ffffffffffffffffffffffffffffffffffffffff161415611ec457338260000160006101000a81548173ffffffffffffffffffffffffffffffffffffffff021916908373ffffffffffffffffffffffffffffffffffffffff160217905550611f21565b8160000160009054906101000a900473ffffffffffffffffffffffffffffffffffffffff1673ffffffffffffffffffffffffffffffffffffffff163373ffffffffffffffffffffffffffffffffffffffff1614611f2057600080fd5b5b611f44611f3183600301546121fe565b836003015461227d90919063ffffffff16565b90506120a9565b60026006811115611f5857fe5b8260070160009054906101000a900460ff166006811115611f7557fe5b14156120a357600073ffffffffffffffffffffffffffffffffffffffff168260010160009054906101000a900473ffffffffffffffffffffffffffffffffffffffff1673ffffffffffffffffffffffffffffffffffffffff16141561201c57338260010160006101000a81548173ffffffffffffffffffffffffffffffffffffffff021916908373ffffffffffffffffffffffffffffffffffffffff160217905550612079565b8160010160009054906101000a900473ffffffffffffffffffffffffffffffffffffffff1673ffffffffffffffffffffffffffffffffffffffff163373ffffffffffffffffffffffffffffffffffffffff161461207857600080fd5b5b61209c61208983600301546121fe565b836005015461227d90919063ffffffff16565b90506120a8565b600080fd5b5b803410156120b657600080fd5b60048260070160006101000a81548160ff021916908360068111156120d757fe5b02179055508160010160009054906101000a900473ffffffffffffffffffffffffffffffffffffffff1673ffffffffffffffffffffffffffffffffffffffff168260000160009054906101000a900473ffffffffffffffffffffffffffffffffffffffff1673ffffffffffffffffffffffffffffffffffffffff167f3b1a762c902fc4fd1e0bc424815ee035c66ff3ea0a640e6a146c3d1d06988bdc858560070160009054906101000a900460ff166040518083815260200182600681111561219c57fe5b60ff1681526020019250505060405180910390a33373ffffffffffffffffffffffffffffffffffffffff166108fc8234039081150290604051600060405180830381858888f193505050501580156121f8573d6000803e3d6000fd5b50505050565b60006103e861221760058461222690919063ffffffff16565b8161221e57fe5b049050919050565b600080831415612239576000905061225a565b600082840290508284828161224a57fe5b041461225557600080fd5b809150505b92915050565b600060208251111561227157600080fd5b60208201519050919050565b60008082840190508381101561229257600080fd5b8091505092915050565b604051806101000160405280600073ffffffffffffffffffffffffffffffffffffffff168152602001600073ffffffffffffffffffffffffffffffffffffffff16815260200160608152602001600081526020016000815260200160008152602001600081526020016000600681111561231257fe5b81525090565b828054600181600116156101000203166002900490600052602060002090601f016020900481019282601f1061235957805160ff1916838001178555612387565b82800160010185558215612387579182015b8281111561238657825182559160200191906001019061236b565b5b5090506123949190612398565b5090565b6123ba91905b808211156123b657600081600090555060010161239e565b5090565b9056fea165627a7a72305820f0cfe6e6c7b02107969c6856fc78e51521dba6d3bad31a206ac64ccf07f5a39b0029",
  "source": "pragma solidity >=0.5.0;\n\ninterface IERC20 {\n    function transfer(address to, uint256 value) external returns (bool);\n\n    function approve(address spender, uint256 value) external returns (bool);\n\n    function transferFrom(address from, address to, uint256 value) external returns (bool);\n\n    function totalSupply() external view returns (uint256);\n\n    function balanceOf(address who) external view returns (uint256);\n\n    function allowance(address owner, address spender) external view returns (uint256);\n\n    event Transfer(address indexed from, address indexed to, uint256 value);\n\n    event Approval(address indexed owner, address indexed spender, uint256 value);\n}\n\nlibrary SafeMath {\n    function add(uint256 a, uint256 b) internal pure returns (uint256) {\n        uint256 c = a + b;\n        require(c >= a);\n        return c;\n    }\n\n    function mul(uint256 a, uint256 b) internal pure returns (uint256) {\n        if (a == 0) {\n            return 0;\n        }\n        uint256 c = a * b;\n        require(c / a == b);\n        return c;\n    }\n}\n\ncontract ERC20OptionTrade {\n    using SafeMath for uint256;\n    \n    enum TradeState {None, SellPaid, BuyPaid, Canceled, Matched, Closed, Expired}\n    \n    struct Trade {\n        address payable buyer;\n        address payable seller;\n        string symbol;\n        uint256 payment;\n        uint256 amountOfTokens;\n        uint256 deposit;\n        uint256 expiration;\n        TradeState state;\n    }\n    event OpenTrade(uint256 tradeId, address indexed buyer, address indexed seller, string symbol, uint256 pricePerToken, uint256 amountOfTokens, uint256 depositPercentage, uint256 expiration, TradeState state);\n    event UpdateTrade(uint256 tradeId, address indexed buyer, address indexed seller, TradeState state);\n\n    address private owner;\n    uint256 public feesGathered;\n\n    mapping (uint256 => Trade) public trades;\n    mapping (bytes32 => IERC20) private tokens;\n    \n    modifier onlyOwner {\n        require(msg.sender == owner);\n        _;\n    }\n\n    constructor() public {\n        owner = msg.sender;\n    }\n    \n    function() external payable {\n        revert();\n    }\n    \n    function A_trade(bool wantToBuy, string memory symbol, uint256 amountOfTokens, uint256 pricePerToken, uint256 depositPercentage, uint256 expiration, address payable other) public payable {\n        require(tokens[convert(symbol)] != IERC20(0x0));\n        require(pricePerToken >= 1000); // min price so that divisions with 1000 never give remainder\n        Trade memory t;\n        (t.symbol, t.payment, t.amountOfTokens, t.deposit, t.expiration)\n        = (symbol, pricePerToken.mul(amountOfTokens), amountOfTokens, pricePerToken.mul(amountOfTokens).mul(depositPercentage) / 100, expiration);\n        \n        uint256 paymentRequired;\n        (t.buyer, t.seller, t.state, paymentRequired) = wantToBuy \n                ? (msg.sender, other, TradeState.BuyPaid, t.payment.add(computeFee(t.payment))) \n                : (other, msg.sender, TradeState.SellPaid, t.deposit.add(computeFee(t.payment)));\n        \n        require(msg.value >= paymentRequired);\n        uint256 tradeId = uint256(keccak256(abi.encodePacked(t.buyer, t.seller, t.symbol, t.amountOfTokens, pricePerToken, depositPercentage, t.expiration)));\n        Trade storage existingTrade = trades[tradeId];\n        if (existingTrade.state == TradeState.None) {\n            emit OpenTrade(tradeId, t.buyer, t.seller, t.symbol, pricePerToken, t.amountOfTokens, depositPercentage, t.expiration, t.state);\n            trades[tradeId] = t;\n        } else if (t.state == TradeState.BuyPaid && existingTrade.state == TradeState.SellPaid \n                || t.state == TradeState.SellPaid && existingTrade.state == TradeState.BuyPaid) {\n            existingTrade.state = TradeState.Matched;\n            emit UpdateTrade(tradeId, t.buyer, t.seller, existingTrade.state);\n        } else {\n            revert();\n        }\n        msg.sender.transfer(msg.value - paymentRequired);\n    }\n    \n    function B_matchTrade(uint256 tradeId) public payable {\n        Trade storage t = trades[tradeId];\n        uint256 paymentRequired;\n\n        if(t.state == TradeState.SellPaid) {\n            if (t.buyer == address(0x0)) {\n                t.buyer = msg.sender;\n            } else {\n                require(msg.sender ==  t.buyer);\n            }\n            paymentRequired = t.payment.add(computeFee(t.payment));\n        } else if(t.state == TradeState.BuyPaid) {\n            if (t.seller == address(0x0)) {\n                t.seller = msg.sender;\n            } else {\n                require(msg.sender ==  t.seller);\n            }\n            paymentRequired = t.deposit.add(computeFee(t.payment));\n        } else {\n            revert();\n        }\n        require(msg.value >= paymentRequired);\n        t.state = TradeState.Matched;\n        emit UpdateTrade(tradeId, t.buyer, t.seller, t.state);\n        msg.sender.transfer(msg.value - paymentRequired);\n    }\n    \n    function B_cancelOpenTrade(uint256 tradeId) public {\n        Trade storage t = trades[tradeId];\n        require(t.state == TradeState.SellPaid || t.state == TradeState.BuyPaid);\n        require(msg.sender == t.seller || msg.sender == t.buyer);\n\n        address payable actor; uint256 refund;\n        (actor, refund) = (t.state == TradeState.SellPaid) \n                ? (t.seller, t.deposit.add(computeFee(t.payment)))\n                : (t.buyer, t.payment.add(computeFee(t.payment)));\n        \n        t.state = TradeState.Canceled;\n        emit UpdateTrade(tradeId, t.buyer, t.seller, t.state);\n        actor.transfer(refund);\n    }\n    \n    function C_completeTrade(uint256 tradeId) public {\n        Trade storage t = trades[tradeId];\n        require(t.state == TradeState.Matched);\n        t.state = TradeState.Closed;\n        feesGathered += computeFee(t.payment).mul(2);\n        require(tokens[convert(t.symbol)].transferFrom(t.seller, t.buyer, t.amountOfTokens));\n        t.seller.transfer(t.payment + t.deposit);\n        emit UpdateTrade(tradeId, t.buyer, t.seller, t.state);\n    }\n    \n    function C_claimExpiredTrade(uint256 tradeId) public {\n        Trade storage t = trades[tradeId];\n        require(t.state == TradeState.Matched && msg.sender == t.buyer && t.expiration < now);\n        t.state = TradeState.Expired;\n        feesGathered += computeFee(t.payment).mul(2);\n        t.buyer.transfer(t.payment + t.deposit);\n        emit UpdateTrade(tradeId, t.buyer, t.seller, t.state);\n    }\n    \n    function _withdrawFees(uint256 amount) public onlyOwner {\n        require(feesGathered >= amount);\n        feesGathered -= amount;\n        msg.sender.transfer(amount);\n    }\n    \n    function computeFee(uint256 value) private pure returns (uint256) {\n        return value.mul(5) / 1000; // This is the fee we take on each side (0.5%)\n    }\n     \n    function convert(string memory key) private pure returns (bytes32 ret) {\n        require(bytes(key).length <= 32);\n        assembly {\n          ret := mload(add(key, 32))\n        }\n    }\n    \n    function getExpirationAfter(uint256 amountOfHours) public view returns (uint256) {\n        return now.add(amountOfHours.mul(1 hours));\n    }\n    \n    function tradeInfo(bool wantToBuy, string memory symbol, uint256 amountOfTokens, \n        uint256 priceOfOneToken, uint256 depositPercentage, uint256 expiration, address payable other) public view \n    returns (uint256 _tradeId, uint256 _buySideTotal, uint256 _sellSideTotal, TradeState _state) {\n        _buySideTotal = amountOfTokens.mul(priceOfOneToken);\n        _sellSideTotal = depositPercentage.mul(_buySideTotal) / 100;\n        _sellSideTotal = _sellSideTotal.add(computeFee(_buySideTotal));\n        _buySideTotal = _buySideTotal.add(computeFee(_buySideTotal));\n        \n        address payable buyer; address payable seller; (buyer, seller) = wantToBuy ? (msg.sender, other) : (other, msg.sender);\n        \n        uint256 tradeId = uint256(keccak256(abi.encodePacked(buyer, seller, symbol, amountOfTokens, priceOfOneToken, depositPercentage, expiration)));\n        return (tradeId, _buySideTotal, _sellSideTotal, trades[tradeId].state);\n    }\n    \n    function _setTokenAddress(string memory symbol, address token) public onlyOwner {\n        tokens[convert(symbol)] = IERC20(token);\n    }\n    \n    function getTokenAddress(string memory symbol) public view returns (IERC20) {\n        return tokens[convert(symbol)];\n    }\n}\n",
  "sourcePath": "/Users/dragos/Downloads/otcbutler/contracts/erc20options.sol",
  "compiler": {
    "name": "solc",
    "version": "0.5.8+commit.23d335f2.Emscripten.clang"
  },
  "schemaVersion": "3.0.11",
  "updatedAt": "2019-09-18T13:35:03.300Z",
  "devdoc": {
    "methods": {}
  },
  "userdoc": {
    "methods": {}
  }
}