{
  "contractName": "ERC20Swap",
  "abi": [
    {
      "constant": true,
      "inputs": [
        {
          "name": "",
          "type": "uint256"
        }
      ],
      "name": "trades",
      "outputs": [
        {
          "name": "",
          "type": "uint8"
        }
      ],
      "payable": false,
      "stateMutability": "view",
      "type": "function"
    },
    {
      "constant": true,
      "inputs": [],
      "name": "owner",
      "outputs": [
        {
          "name": "",
          "type": "address"
        }
      ],
      "payable": false,
      "stateMutability": "view",
      "type": "function"
    },
    {
      "constant": true,
      "inputs": [],
      "name": "feesGathered",
      "outputs": [
        {
          "name": "",
          "type": "uint256"
        }
      ],
      "payable": false,
      "stateMutability": "view",
      "type": "function"
    },
    {
      "inputs": [],
      "payable": false,
      "stateMutability": "nonpayable",
      "type": "constructor"
    },
    {
      "payable": true,
      "stateMutability": "payable",
      "type": "fallback"
    },
    {
      "anonymous": false,
      "inputs": [
        {
          "indexed": true,
          "name": "buyer",
          "type": "address"
        },
        {
          "indexed": true,
          "name": "seller",
          "type": "address"
        },
        {
          "indexed": false,
          "name": "token",
          "type": "address"
        },
        {
          "indexed": false,
          "name": "ethAmount",
          "type": "uint256"
        },
        {
          "indexed": false,
          "name": "tokenAmount",
          "type": "uint256"
        },
        {
          "indexed": false,
          "name": "expiration",
          "type": "uint256"
        },
        {
          "indexed": false,
          "name": "state",
          "type": "uint8"
        }
      ],
      "name": "OpenTrade",
      "type": "event"
    },
    {
      "anonymous": false,
      "inputs": [
        {
          "indexed": true,
          "name": "buyer",
          "type": "address"
        },
        {
          "indexed": true,
          "name": "seller",
          "type": "address"
        },
        {
          "indexed": false,
          "name": "tradeId",
          "type": "uint256"
        }
      ],
      "name": "CloseTrade",
      "type": "event"
    },
    {
      "constant": false,
      "inputs": [
        {
          "name": "wantToBuy",
          "type": "bool"
        },
        {
          "name": "other",
          "type": "address"
        },
        {
          "name": "token",
          "type": "address"
        },
        {
          "name": "tokenAmount",
          "type": "uint256"
        },
        {
          "name": "ethAmount",
          "type": "uint256"
        },
        {
          "name": "expiration",
          "type": "uint256"
        }
      ],
      "name": "trade",
      "outputs": [],
      "payable": true,
      "stateMutability": "payable",
      "type": "function"
    },
    {
      "constant": false,
      "inputs": [
        {
          "name": "wantToBuy",
          "type": "bool"
        },
        {
          "name": "other",
          "type": "address"
        },
        {
          "name": "token",
          "type": "address"
        },
        {
          "name": "tokenAmount",
          "type": "uint256"
        },
        {
          "name": "ethAmount",
          "type": "uint256"
        },
        {
          "name": "expiration",
          "type": "uint256"
        }
      ],
      "name": "cancelTrade",
      "outputs": [],
      "payable": false,
      "stateMutability": "nonpayable",
      "type": "function"
    },
    {
      "constant": false,
      "inputs": [],
      "name": "_withdrawFees",
      "outputs": [],
      "payable": false,
      "stateMutability": "nonpayable",
      "type": "function"
    },
    {
      "constant": true,
      "inputs": [
        {
          "name": "amountOfHours",
          "type": "uint256"
        }
      ],
      "name": "getExpirationAfter",
      "outputs": [
        {
          "name": "",
          "type": "uint256"
        }
      ],
      "payable": false,
      "stateMutability": "view",
      "type": "function"
    },
    {
      "constant": true,
      "inputs": [
        {
          "name": "wantToBuy",
          "type": "bool"
        },
        {
          "name": "other",
          "type": "address"
        },
        {
          "name": "token",
          "type": "address"
        },
        {
          "name": "tokenAmount",
          "type": "uint256"
        },
        {
          "name": "ethAmount",
          "type": "uint256"
        },
        {
          "name": "expiration",
          "type": "uint256"
        }
      ],
      "name": "tradeInfo",
      "outputs": [
        {
          "name": "_tradeId",
          "type": "uint256"
        },
        {
          "name": "_buySideTotal",
          "type": "uint256"
        },
        {
          "name": "",
          "type": "uint8"
        }
      ],
      "payable": false,
      "stateMutability": "view",
      "type": "function"
    }
  ],
  "bytecode": "0x608060405234801561001057600080fd5b50336000806101000a81548173ffffffffffffffffffffffffffffffffffffffff021916908373ffffffffffffffffffffffffffffffffffffffff160217905550611554806100606000396000f3fe60806040526004361061007b5760003560e01c8063814012891161004e57806381401289146102d15780638da5cb5b146103205780638fac3d3e14610377578063bc2409ed146103a25761007b565b80630af1958f146100805780631e6c598e1461010e57806352e444801461016b5780636312be9f14610236575b600080fd5b61010c600480360360c081101561009657600080fd5b81019080803515159060200190929190803573ffffffffffffffffffffffffffffffffffffffff169060200190929190803573ffffffffffffffffffffffffffffffffffffffff1690602001909291908035906020019092919080359060200190929190803590602001909291905050506103b9565b005b34801561011a57600080fd5b506101476004803603602081101561013157600080fd5b8101908080359060200190929190505050610d9f565b6040518082600281111561015757fe5b60ff16815260200191505060405180910390f35b34801561017757600080fd5b50610204600480360360c081101561018e57600080fd5b81019080803515159060200190929190803573ffffffffffffffffffffffffffffffffffffffff169060200190929190803573ffffffffffffffffffffffffffffffffffffffff169060200190929190803590602001909291908035906020019092919080359060200190929190505050610dbf565b6040518084815260200183815260200182600281111561022057fe5b60ff168152602001935050505060405180910390f35b34801561024257600080fd5b506102cf600480360360c081101561025957600080fd5b81019080803515159060200190929190803573ffffffffffffffffffffffffffffffffffffffff169060200190929190803573ffffffffffffffffffffffffffffffffffffffff169060200190929190803590602001909291908035906020019092919080359060200190929190505050610f13565b005b3480156102dd57600080fd5b5061030a600480360360208110156102f457600080fd5b81019080803590602001909291905050506113bf565b6040518082815260200191505060405180910390f35b34801561032c57600080fd5b506103356113cf565b604051808273ffffffffffffffffffffffffffffffffffffffff1673ffffffffffffffffffffffffffffffffffffffff16815260200191505060405180910390f35b34801561038357600080fd5b5061038c6113f4565b6040518082815260200191505060405180910390f35b3480156103ae57600080fd5b506103b76113fa565b005b620186a082116103c857600080fd5b6000866104b357853386858786604051602001808773ffffffffffffffffffffffffffffffffffffffff1673ffffffffffffffffffffffffffffffffffffffff1660601b81526014018673ffffffffffffffffffffffffffffffffffffffff1673ffffffffffffffffffffffffffffffffffffffff1660601b81526014018573ffffffffffffffffffffffffffffffffffffffff1673ffffffffffffffffffffffffffffffffffffffff1660601b815260140184815260200183815260200182815260200196505050505050506040516020818303038152906040528051906020012060001c610593565b338686858786604051602001808773ffffffffffffffffffffffffffffffffffffffff1673ffffffffffffffffffffffffffffffffffffffff1660601b81526014018673ffffffffffffffffffffffffffffffffffffffff1673ffffffffffffffffffffffffffffffffffffffff1660601b81526014018573ffffffffffffffffffffffffffffffffffffffff1673ffffffffffffffffffffffffffffffffffffffff1660601b815260140184815260200183815260200182815260200196505050505050506040516020818303038152906040528051906020012060001c5b905060006002600083815260200190815260200160002060009054906101000a900460ff169050600060028111156105c757fe5b8160028111156105d357fe5b14156108f85787156106fe576105fa6105eb856114ac565b856114d490919063ffffffff16565b341461060557600080fd5b600280600084815260200190815260200160002060006101000a81548160ff0219169083600281111561063457fe5b02179055508673ffffffffffffffffffffffffffffffffffffffff163373ffffffffffffffffffffffffffffffffffffffff167fa47df17769af57106d4c1833254ed58f0b3eb05a1558f6efbea72b7fac23279c888789886002604051808673ffffffffffffffffffffffffffffffffffffffff1673ffffffffffffffffffffffffffffffffffffffff1681526020018581526020018481526020018381526020018260028111156106e257fe5b60ff1681526020019550505050505060405180910390a36108f3565b8573ffffffffffffffffffffffffffffffffffffffff166323b872dd3330886040518463ffffffff1660e01b8152600401808473ffffffffffffffffffffffffffffffffffffffff1673ffffffffffffffffffffffffffffffffffffffff1681526020018373ffffffffffffffffffffffffffffffffffffffff1673ffffffffffffffffffffffffffffffffffffffff1681526020018281526020019350505050602060405180830381600087803b1580156107b957600080fd5b505af11580156107cd573d6000803e3d6000fd5b505050506040513d60208110156107e357600080fd5b81019080805190602001909291905050506107fd57600080fd5b60016002600084815260200190815260200160002060006101000a81548160ff0219169083600281111561082d57fe5b02179055503373ffffffffffffffffffffffffffffffffffffffff168773ffffffffffffffffffffffffffffffffffffffff167fa47df17769af57106d4c1833254ed58f0b3eb05a1558f6efbea72b7fac23279c888789886001604051808673ffffffffffffffffffffffffffffffffffffffff1673ffffffffffffffffffffffffffffffffffffffff1681526020018581526020018481526020018381526020018260028111156108db57fe5b60ff1681526020019550505050505060405180910390a35b610d95565b87801561091b57506001600281111561090d57fe5b81600281111561091957fe5b145b15610b385742831161092c57600080fd5b6000610937856114ac565b905061094c81866114d490919063ffffffff16565b341461095757600080fd5b60006002600085815260200190815260200160002060006101000a81548160ff0219169083600281111561098757fe5b02179055508673ffffffffffffffffffffffffffffffffffffffff1663a9059cbb33886040518363ffffffff1660e01b8152600401808373ffffffffffffffffffffffffffffffffffffffff1673ffffffffffffffffffffffffffffffffffffffff16815260200182815260200192505050602060405180830381600087803b158015610a1357600080fd5b505af1158015610a27573d6000803e3d6000fd5b505050506040513d6020811015610a3d57600080fd5b8101908080519060200190929190505050610a5757600080fd5b8773ffffffffffffffffffffffffffffffffffffffff166108fc8287039081150290604051600060405180830381858888f19350505050158015610a9f573d6000803e3d6000fd5b50610ac781610ab9836001546114d490919063ffffffff16565b6114d490919063ffffffff16565b6001819055508773ffffffffffffffffffffffffffffffffffffffff163373ffffffffffffffffffffffffffffffffffffffff167f7f7317412c8857bf6e670130154e29611dfac114b976ec62b9a70900624bae23856040518082815260200191505060405180910390a350610d94565b87158015610b5b5750600280811115610b4d57fe5b816002811115610b5957fe5b145b15610d8e57428311610b6c57600080fd5b60006002600084815260200190815260200160002060006101000a81548160ff02191690836002811115610b9c57fe5b02179055508573ffffffffffffffffffffffffffffffffffffffff166323b872dd3389886040518463ffffffff1660e01b8152600401808473ffffffffffffffffffffffffffffffffffffffff1673ffffffffffffffffffffffffffffffffffffffff1681526020018373ffffffffffffffffffffffffffffffffffffffff1673ffffffffffffffffffffffffffffffffffffffff1681526020018281526020019350505050602060405180830381600087803b158015610c5c57600080fd5b505af1158015610c70573d6000803e3d6000fd5b505050506040513d6020811015610c8657600080fd5b8101908080519060200190929190505050610ca057600080fd5b6000610cab856114ac565b90503373ffffffffffffffffffffffffffffffffffffffff166108fc8287039081150290604051600060405180830381858888f19350505050158015610cf5573d6000803e3d6000fd5b50610d1d81610d0f836001546114d490919063ffffffff16565b6114d490919063ffffffff16565b6001819055503373ffffffffffffffffffffffffffffffffffffffff168873ffffffffffffffffffffffffffffffffffffffff167f7f7317412c8857bf6e670130154e29611dfac114b976ec62b9a70900624bae23856040518082815260200191505060405180910390a350610d93565b600080fd5b5b5b5050505050505050565b60026020528060005260406000206000915054906101000a900460ff1681565b6000806000610ddf610dd0866114ac565b866114d490919063ffffffff16565b91506000808a610df0578933610df3565b338a5b809250819350505081818a898b8a604051602001808773ffffffffffffffffffffffffffffffffffffffff1673ffffffffffffffffffffffffffffffffffffffff1660601b81526014018673ffffffffffffffffffffffffffffffffffffffff1673ffffffffffffffffffffffffffffffffffffffff1660601b81526014018573ffffffffffffffffffffffffffffffffffffffff1673ffffffffffffffffffffffffffffffffffffffff1660601b815260140184815260200183815260200182815260200196505050505050506040516020818303038152906040528051906020012060001c945084846002600088815260200190815260200160002060009054906101000a900460ff16945094509450505096509650969350505050565b600086610ffe57853386858786604051602001808773ffffffffffffffffffffffffffffffffffffffff1673ffffffffffffffffffffffffffffffffffffffff1660601b81526014018673ffffffffffffffffffffffffffffffffffffffff1673ffffffffffffffffffffffffffffffffffffffff1660601b81526014018573ffffffffffffffffffffffffffffffffffffffff1673ffffffffffffffffffffffffffffffffffffffff1660601b815260140184815260200183815260200182815260200196505050505050506040516020818303038152906040528051906020012060001c6110de565b338686858786604051602001808773ffffffffffffffffffffffffffffffffffffffff1673ffffffffffffffffffffffffffffffffffffffff1660601b81526014018673ffffffffffffffffffffffffffffffffffffffff1673ffffffffffffffffffffffffffffffffffffffff1660601b81526014018573ffffffffffffffffffffffffffffffffffffffff1673ffffffffffffffffffffffffffffffffffffffff1660601b815260140184815260200183815260200182815260200196505050505050506040516020818303038152906040528051906020012060001c5b905060006002600083815260200190815260200160002060009054906101000a900460ff169050878015611127575060028081111561111957fe5b81600281111561112557fe5b145b1561121c5760006002600084815260200190815260200160002060006101000a81548160ff0219169083600281111561115c57fe5b02179055503373ffffffffffffffffffffffffffffffffffffffff166108fc611184866114ac565b86019081150290604051600060405180830381858888f193505050501580156111b1573d6000803e3d6000fd5b508673ffffffffffffffffffffffffffffffffffffffff163373ffffffffffffffffffffffffffffffffffffffff167f7f7317412c8857bf6e670130154e29611dfac114b976ec62b9a70900624bae23846040518082815260200191505060405180910390a36113b5565b8715801561124057506001600281111561123257fe5b81600281111561123e57fe5b145b156113af5760006002600084815260200190815260200160002060006101000a81548160ff0219169083600281111561127557fe5b02179055508573ffffffffffffffffffffffffffffffffffffffff1663a9059cbb33876040518363ffffffff1660e01b8152600401808373ffffffffffffffffffffffffffffffffffffffff1673ffffffffffffffffffffffffffffffffffffffff16815260200182815260200192505050602060405180830381600087803b15801561130157600080fd5b505af1158015611315573d6000803e3d6000fd5b505050506040513d602081101561132b57600080fd5b810190808051906020019092919050505061134557600080fd5b3373ffffffffffffffffffffffffffffffffffffffff168773ffffffffffffffffffffffffffffffffffffffff167f7f7317412c8857bf6e670130154e29611dfac114b976ec62b9a70900624bae23846040518082815260200191505060405180910390a36113b4565b600080fd5b5b5050505050505050565b6000610e10820242019050919050565b6000809054906101000a900473ffffffffffffffffffffffffffffffffffffffff1681565b60015481565b6000809054906101000a900473ffffffffffffffffffffffffffffffffffffffff1673ffffffffffffffffffffffffffffffffffffffff163373ffffffffffffffffffffffffffffffffffffffff161461145357600080fd5b6000600154905060006001819055503373ffffffffffffffffffffffffffffffffffffffff166108fc829081150290604051600060405180830381858888f193505050501580156114a8573d6000803e3d6000fd5b5050565b60006103e86114c56005846114f190919063ffffffff16565b816114cc57fe5b049050919050565b60008183019050828110156114e857600080fd5b80905092915050565b6000808314156115045760009050611522565b81830290508183828161151357fe5b041461151e57600080fd5b8090505b9291505056fea165627a7a723058208282b8444ec0192d81f5a3985e153eb3ece7437258f1cbf429bbd846247fc1270029",
  "source": "pragma solidity >=0.5.0;\n\ninterface IERC20 {\n    function transfer(address to, uint256 value) external returns (bool);\n\n    function approve(address spender, uint256 value) external returns (bool);\n\n    function transferFrom(address from, address to, uint256 value) external returns (bool);\n\n    function totalSupply() external view returns (uint256);\n\n    function balanceOf(address who) external view returns (uint256);\n\n    function allowance(address owner, address spender) external view returns (uint256);\n\n    event Transfer(address indexed from, address indexed to, uint256 value);\n\n    event Approval(address indexed owner, address indexed spender, uint256 value);\n}\n\nlibrary SafeMath {\n    function add(uint256 a, uint256 b) internal pure returns (uint256 c) {\n        c = a + b;\n        require(c >= a);\n        return c;\n    }\n\n    function mul(uint256 a, uint256 b) internal pure returns (uint256 c) {\n        if (a == 0) {\n            return 0;\n        }\n        c = a * b;\n        require(c / a == b);\n        return c;\n    }\n}\n\ncontract ERC20Swap {\n    using SafeMath for uint256;\n    \n    enum TradeState {None, SellPaid, BuyPaid}\n \n    event OpenTrade(address indexed buyer, address indexed seller, address token, uint256 ethAmount, uint256 tokenAmount, uint256 expiration, TradeState state);\n    event CloseTrade(address indexed buyer, address indexed seller, uint256 tradeId);\n\n    address public owner;\n    uint256 public feesGathered;\n\n    mapping (uint256 => TradeState) public trades;\n\n    modifier onlyOwner {\n        require(msg.sender == owner);\n        _;\n    }\n\n    constructor() public {\n        owner = msg.sender;\n    }\n    \n    function trade(bool wantToBuy, address payable other, address token, uint256 tokenAmount, uint256 ethAmount, uint256 expiration) public payable {\n        require(ethAmount > 100000);\n        uint256 tradeId = wantToBuy \n                        ? uint256(keccak256(abi.encodePacked(msg.sender, other, token, ethAmount, tokenAmount, expiration)))\n                        : uint256(keccak256(abi.encodePacked(other, msg.sender, token, ethAmount, tokenAmount, expiration)));\n        TradeState state = trades[tradeId];\n        if (state == TradeState.None) { // If trade doesn't exist\n            if (wantToBuy) { // If trying to buy\n                require(msg.value == ethAmount.add(computeFee(ethAmount))); // Take eth and fee from buyer\n                trades[tradeId] = TradeState.BuyPaid; // Update state\n                emit OpenTrade(msg.sender, other, token, ethAmount, tokenAmount, expiration, TradeState.BuyPaid); // Log open BUY\n            } else { // If trying to sell\n                require(IERC20(token).transferFrom(msg.sender, address(this), tokenAmount)); // Take tokens from seller\n                trades[tradeId] = TradeState.SellPaid; // Update state\n                emit OpenTrade(other, msg.sender, token, ethAmount, tokenAmount, expiration, TradeState.SellPaid); // Log open SELL\n            }\n        } else if (wantToBuy && state == TradeState.SellPaid) { // If buyer closes the trade\n            require(expiration > now);\n            uint256 fee = computeFee(ethAmount);\n            require(msg.value == ethAmount.add(fee)); // Take eth and fee from buyer\n            trades[tradeId] = TradeState.None; // Close trade first to protect against reentrancy\n            require(IERC20(token).transfer(msg.sender, tokenAmount)); // Send tokens to buyer (from this contract as seller already paid us)\n            other.transfer(ethAmount - fee); // Send eth - fee to seller\n            feesGathered = feesGathered.add(fee).add(fee);\n            emit CloseTrade(msg.sender, other, tradeId);\n        } else if (!wantToBuy && state == TradeState.BuyPaid) { // If seller closes the trade\n            require(expiration > now);\n            trades[tradeId] = TradeState.None; // Close trade first to protect against reentrancy\n            require(IERC20(token).transferFrom(msg.sender, other, tokenAmount)); // Send tokens to buyer (directly from seller)\n            uint256 fee = computeFee(ethAmount);\n            msg.sender.transfer(ethAmount - fee); // Send eth - fee to seller\n            feesGathered = feesGathered.add(fee).add(fee);\n            emit CloseTrade(other, msg.sender, tradeId);\n        } else {\n            revert();\n        }\n    }\n    \n    function cancelTrade(bool wantToBuy, address payable other, address token, uint256 tokenAmount, uint256 ethAmount, uint256 expiration) public {\n        uint256 tradeId = wantToBuy \n                        ? uint256(keccak256(abi.encodePacked(msg.sender, other, token, ethAmount, tokenAmount, expiration)))\n                        : uint256(keccak256(abi.encodePacked(other, msg.sender, token, ethAmount, tokenAmount, expiration)));\n        TradeState state = trades[tradeId];\n        if (wantToBuy && state == TradeState.BuyPaid) { // If buyer cancels the trade\n            trades[tradeId] = TradeState.None; // Close trade first to protect against reentrancy\n            msg.sender.transfer(ethAmount + computeFee(ethAmount)); // Refund eth + fee to buyer\n            emit CloseTrade(msg.sender, other, tradeId);\n        } else if (!wantToBuy && state == TradeState.SellPaid) { // If seller cancels the trade\n            trades[tradeId] = TradeState.None; // Close trade first to protect against reentrancy\n            require(IERC20(token).transfer(msg.sender, tokenAmount)); // Refund tokens to seller\n            emit CloseTrade(other, msg.sender, tradeId);\n        } else {\n            revert();\n        }\n    }\n    \n    function _withdrawFees() public onlyOwner {\n        uint256 amount = feesGathered;\n        feesGathered = 0;\n        msg.sender.transfer(amount);\n    }\n    \n    function computeFee(uint256 value) private pure returns (uint256) {\n        return value.mul(5) / 1000; // this is the fee we take on each side (0.5%)\n    }\n    \n    function getExpirationAfter(uint256 amountOfHours) public view returns (uint256) {\n        return now + (amountOfHours * (1 hours));\n    }\n    \n    function tradeInfo(bool wantToBuy, address payable other, address token, uint256 tokenAmount, uint256 ethAmount, uint256 expiration) public view \n    returns (uint256 _tradeId, uint256 _buySideTotal, TradeState) {\n        _buySideTotal = ethAmount.add(computeFee(ethAmount));\n\n        address payable buyer; address payable seller; (buyer, seller) = wantToBuy ? (msg.sender, other) : (other, msg.sender);\n        \n        _tradeId = uint256(keccak256(abi.encodePacked(buyer, seller, token, ethAmount, tokenAmount, expiration)));\n        return (_tradeId, _buySideTotal, trades[_tradeId]);\n    }\n    \n    function() external payable {\n        revert();\n    }\n}\n",
  "sourcePath": "/Users/dragos/Downloads/otcbutler/contracts/erc20swap.sol",
  "compiler": {
    "name": "solc",
    "version": "0.5.8+commit.23d335f2.Emscripten.clang"
  },
  "schemaVersion": "3.0.11",
  "updatedAt": "2019-09-18T13:35:03.312Z",
  "devdoc": {
    "methods": {}
  },
  "userdoc": {
    "methods": {}
  }
}